{
  "contractName": "Exchange",
  "abi": [
    {
      "anonymous": false,
      "inputs": [
        {
          "indexed": true,
          "name": "_from",
          "type": "address"
        },
        {
          "indexed": true,
          "name": "_symbolIndex",
          "type": "uint256"
        },
        {
          "indexed": false,
          "name": "_amount",
          "type": "uint256"
        },
        {
          "indexed": false,
          "name": "_timestamp",
          "type": "uint256"
        }
      ],
      "name": "DepositForTokenReceived",
      "type": "event"
    },
    {
      "anonymous": false,
      "inputs": [
        {
          "indexed": true,
          "name": "_to",
          "type": "address"
        },
        {
          "indexed": true,
          "name": "_symbolIndex",
          "type": "uint256"
        },
        {
          "indexed": false,
          "name": "_amount",
          "type": "uint256"
        },
        {
          "indexed": false,
          "name": "_timestamp",
          "type": "uint256"
        }
      ],
      "name": "WithdrawalToken",
      "type": "event"
    },
    {
      "anonymous": false,
      "inputs": [
        {
          "indexed": true,
          "name": "_from",
          "type": "address"
        },
        {
          "indexed": false,
          "name": "_amount",
          "type": "uint256"
        },
        {
          "indexed": false,
          "name": "_timestamp",
          "type": "uint256"
        }
      ],
      "name": "DepositForEthReceived",
      "type": "event"
    },
    {
      "anonymous": false,
      "inputs": [
        {
          "indexed": true,
          "name": "_to",
          "type": "address"
        },
        {
          "indexed": false,
          "name": "_amount",
          "type": "uint256"
        },
        {
          "indexed": false,
          "name": "_timestamp",
          "type": "uint256"
        }
      ],
      "name": "WithdrawalEth",
      "type": "event"
    },
    {
      "anonymous": false,
      "inputs": [
        {
          "indexed": true,
          "name": "_symbolIndex",
          "type": "uint256"
        },
        {
          "indexed": true,
          "name": "_who",
          "type": "address"
        },
        {
          "indexed": false,
          "name": "_amountTokens",
          "type": "uint256"
        },
        {
          "indexed": false,
          "name": "_priceInWei",
          "type": "uint256"
        },
        {
          "indexed": false,
          "name": "_orderKey",
          "type": "uint256"
        }
      ],
      "name": "LimitSellOrderCreated",
      "type": "event"
    },
    {
      "anonymous": false,
      "inputs": [
        {
          "indexed": true,
          "name": "_symbolIndex",
          "type": "uint256"
        },
        {
          "indexed": false,
          "name": "_amount",
          "type": "uint256"
        },
        {
          "indexed": false,
          "name": "_priceInWei",
          "type": "uint256"
        },
        {
          "indexed": false,
          "name": "_orderKey",
          "type": "uint256"
        }
      ],
      "name": "SellOrderFulfilled",
      "type": "event"
    },
    {
      "anonymous": false,
      "inputs": [
        {
          "indexed": true,
          "name": "_symbolIndex",
          "type": "uint256"
        },
        {
          "indexed": false,
          "name": "_priceInWei",
          "type": "uint256"
        },
        {
          "indexed": false,
          "name": "_orderKey",
          "type": "uint256"
        }
      ],
      "name": "SellOrderCanceled",
      "type": "event"
    },
    {
      "anonymous": false,
      "inputs": [
        {
          "indexed": true,
          "name": "_symbolIndex",
          "type": "uint256"
        },
        {
          "indexed": true,
          "name": "_who",
          "type": "address"
        },
        {
          "indexed": false,
          "name": "_amountTokens",
          "type": "uint256"
        },
        {
          "indexed": false,
          "name": "_priceInWei",
          "type": "uint256"
        },
        {
          "indexed": false,
          "name": "_orderKey",
          "type": "uint256"
        }
      ],
      "name": "LimitBuyOrderCreated",
      "type": "event"
    },
    {
      "anonymous": false,
      "inputs": [
        {
          "indexed": true,
          "name": "_symbolIndex",
          "type": "uint256"
        },
        {
          "indexed": false,
          "name": "_amount",
          "type": "uint256"
        },
        {
          "indexed": false,
          "name": "_priceInWei",
          "type": "uint256"
        },
        {
          "indexed": false,
          "name": "_orderKey",
          "type": "uint256"
        }
      ],
      "name": "BuyOrderFulfilled",
      "type": "event"
    },
    {
      "anonymous": false,
      "inputs": [
        {
          "indexed": true,
          "name": "_symbolIndex",
          "type": "uint256"
        },
        {
          "indexed": false,
          "name": "_priceInWei",
          "type": "uint256"
        },
        {
          "indexed": false,
          "name": "_orderKey",
          "type": "uint256"
        }
      ],
      "name": "BuyOrderCanceled",
      "type": "event"
    },
    {
      "anonymous": false,
      "inputs": [
        {
          "indexed": false,
          "name": "_symbolIndex",
          "type": "uint256"
        },
        {
          "indexed": false,
          "name": "_token",
          "type": "string"
        },
        {
          "indexed": false,
          "name": "_timestamp",
          "type": "uint256"
        }
      ],
      "name": "TokenAddedToSystem",
      "type": "event"
    },
    {
      "constant": false,
      "inputs": [],
      "name": "depositEther",
      "outputs": [],
      "payable": true,
      "stateMutability": "payable",
      "type": "function"
    },
    {
      "constant": false,
      "inputs": [
        {
          "name": "amountInWei",
          "type": "uint256"
        }
      ],
      "name": "withdrawEther",
      "outputs": [],
      "payable": false,
      "stateMutability": "nonpayable",
      "type": "function"
    },
    {
      "constant": true,
      "inputs": [],
      "name": "getEthBalanceInWei",
      "outputs": [
        {
          "name": "",
          "type": "uint256"
        }
      ],
      "payable": false,
      "stateMutability": "view",
      "type": "function"
    },
    {
      "constant": false,
      "inputs": [
        {
          "name": "symbolName",
          "type": "string"
        },
        {
          "name": "erc20TokenAddress",
          "type": "address"
        }
      ],
      "name": "addToken",
      "outputs": [],
      "payable": false,
      "stateMutability": "nonpayable",
      "type": "function"
    },
    {
      "constant": true,
      "inputs": [
        {
          "name": "symbolName",
          "type": "string"
        }
      ],
      "name": "hasToken",
      "outputs": [
        {
          "name": "",
          "type": "bool"
        }
      ],
      "payable": false,
      "stateMutability": "view",
      "type": "function"
    },
    {
      "constant": false,
      "inputs": [
        {
          "name": "symbolName",
          "type": "string"
        }
      ],
      "name": "getSymbolIndexOrThrow",
      "outputs": [
        {
          "name": "",
          "type": "uint8"
        }
      ],
      "payable": false,
      "stateMutability": "nonpayable",
      "type": "function"
    },
    {
      "constant": false,
      "inputs": [
        {
          "name": "symbolName",
          "type": "string"
        },
        {
          "name": "amount",
          "type": "uint256"
        }
      ],
      "name": "depositToken",
      "outputs": [],
      "payable": false,
      "stateMutability": "nonpayable",
      "type": "function"
    },
    {
      "constant": false,
      "inputs": [
        {
          "name": "symbolName",
          "type": "string"
        },
        {
          "name": "amount",
          "type": "uint256"
        }
      ],
      "name": "withdrawToken",
      "outputs": [],
      "payable": false,
      "stateMutability": "nonpayable",
      "type": "function"
    },
    {
      "constant": true,
      "inputs": [
        {
          "name": "symbolName",
          "type": "string"
        }
      ],
      "name": "getBalance",
      "outputs": [
        {
          "name": "",
          "type": "uint256"
        }
      ],
      "payable": false,
      "stateMutability": "view",
      "type": "function"
    },
    {
      "constant": true,
      "inputs": [
        {
          "name": "symbolName",
          "type": "string"
        }
      ],
      "name": "getBuyOrderBook",
      "outputs": [
        {
          "name": "",
          "type": "uint256[]"
        },
        {
          "name": "",
          "type": "uint256[]"
        }
      ],
      "payable": false,
      "stateMutability": "view",
      "type": "function"
    },
    {
      "constant": true,
      "inputs": [
        {
          "name": "symbolName",
          "type": "string"
        }
      ],
      "name": "getSellOrderBook",
      "outputs": [
        {
          "name": "",
          "type": "uint256[]"
        },
        {
          "name": "",
          "type": "uint256[]"
        }
      ],
      "payable": false,
      "stateMutability": "view",
      "type": "function"
    },
    {
      "constant": false,
      "inputs": [
        {
          "name": "symbolName",
          "type": "string"
        },
        {
          "name": "priceInWei",
          "type": "uint256"
        },
        {
          "name": "amount",
          "type": "uint256"
        }
      ],
      "name": "buyToken",
      "outputs": [],
      "payable": false,
      "stateMutability": "nonpayable",
      "type": "function"
    },
    {
      "constant": false,
      "inputs": [
        {
          "name": "symbolName",
          "type": "string"
        },
        {
          "name": "priceInWei",
          "type": "uint256"
        },
        {
          "name": "amount",
          "type": "uint256"
        }
      ],
      "name": "sellToken",
      "outputs": [],
      "payable": false,
      "stateMutability": "nonpayable",
      "type": "function"
    },
    {
      "constant": false,
      "inputs": [
        {
          "name": "symbolName",
          "type": "string"
        },
        {
          "name": "isSellOrder",
          "type": "bool"
        },
        {
          "name": "priceInWei",
          "type": "uint256"
        },
        {
          "name": "offerKey",
          "type": "uint256"
        }
      ],
      "name": "cancelOrder",
      "outputs": [],
      "payable": false,
      "stateMutability": "nonpayable",
      "type": "function"
    }
  ],
  "bytecode": "0x6060604052336000806101000a81548173ffffffffffffffffffffffffffffffffffffffff021916908373ffffffffffffffffffffffffffffffffffffffff160217905550611763806100536000396000f3006060604052600436106100d0576000357c0100000000000000000000000000000000000000000000000000000000900463ffffffff16806303bc4a27146100d55780631a8eb72b146101cf57806333ad57e4146101f85780633a51d2461461025e5780633bed33ce146102cf5780635ab8ea33146102f2578063728ff02914610361578063851030fe1461045b5780638ea00818146104ca578063977377f81461053f57806398ea5fca146105b6578063b0b22c2c146105c0578063c97a413a1461063c578063d1a3b025146106a2575b600080fd5b34156100e057600080fd5b610130600480803590602001908201803590602001908080601f0160208091040260200160405190810160405280939291908181526020018383808284378201915050505050509190505061071c565b604051808060200180602001838103835285818151815260200191508051906020019060200280838360005b8381101561017757808201518184015260208101905061015c565b50505050905001838103825284818151815260200191508051906020019060200280838360005b838110156101b957808201518184015260208101905061019e565b5050505090500194505050505060405180910390f35b34156101da57600080fd5b6101e2610731565b6040518082815260200191505060405180910390f35b341561020357600080fd5b61025c600480803590602001908201803590602001908080601f01602080910402602001604051908101604052809392919081815260200183838082843782019150505050505091908035906020019091905050610778565b005b341561026957600080fd5b6102b9600480803590602001908201803590602001908080601f01602080910402602001604051908101604052809392919081815260200183838082843782019150505050505091905050610aca565b6040518082815260200191505060405180910390f35b34156102da57600080fd5b6102f06004808035906020019091905050610b37565b005b34156102fd57600080fd5b61035f600480803590602001908201803590602001908080601f01602080910402602001604051908101604052809392919081815260200183838082843782019150505050505091908035906020019091908035906020019091905050610cfd565b005b341561036c57600080fd5b6103bc600480803590602001908201803590602001908080601f01602080910402602001604051908101604052809392919081815260200183838082843782019150505050505091905050610d02565b604051808060200180602001838103835285818151815260200191508051906020019060200280838360005b838110156104035780820151818401526020810190506103e8565b50505050905001838103825284818151815260200191508051906020019060200280838360005b8381101561044557808201518184015260208101905061042a565b5050505090500194505050505060405180910390f35b341561046657600080fd5b6104c8600480803590602001908201803590602001908080601f01602080910402602001604051908101604052809392919081815260200183838082843782019150505050505091908035906020019091908035906020019091905050610d17565b005b34156104d557600080fd5b610525600480803590602001908201803590602001908080601f01602080910402602001604051908101604052809392919081815260200183838082843782019150505050505091905050610d1c565b604051808215151515815260200191505060405180910390f35b341561054a57600080fd5b61059a600480803590602001908201803590602001908080601f01602080910402602001604051908101604052809392919081815260200183838082843782019150505050505091905050610d4a565b604051808260ff1660ff16815260200191505060405180910390f35b6105be610d73565b005b34156105cb57600080fd5b61063a600480803590602001908201803590602001908080601f0160208091040260200160405190810160405280939291908181526020018383808284378201915050505050509190803573ffffffffffffffffffffffffffffffffffffffff16906020019091905050610ea7565b005b341561064757600080fd5b6106a0600480803590602001908201803590602001908080601f016020809104026020016040519081016040528093929190818152602001838380828437820191505050505050919080359060200190919050506110e5565b005b34156106ad57600080fd5b61071a600480803590602001908201803590602001908080601f01602080910402602001604051908101604052809392919081815260200183838082843782019150505050505091908035151590602001909190803590602001909190803590602001909190505061146b565b005b61072461166a565b61072c61166a565b915091565b6000600460003373ffffffffffffffffffffffffffffffffffffffff1673ffffffffffffffffffffffffffffffffffffffff16815260200190815260200160002054905090565b60008061078484610d4a565b9150600073ffffffffffffffffffffffffffffffffffffffff16600160008460ff1660ff16815260200190815260200160002060000160009054906101000a900473ffffffffffffffffffffffffffffffffffffffff1673ffffffffffffffffffffffffffffffffffffffff16141515156107fe57600080fd5b600160008360ff1660ff16815260200190815260200160002060000160009054906101000a900473ffffffffffffffffffffffffffffffffffffffff169050600115158173ffffffffffffffffffffffffffffffffffffffff166323b872dd3330876000604051602001526040518463ffffffff167c0100000000000000000000000000000000000000000000000000000000028152600401808473ffffffffffffffffffffffffffffffffffffffff1673ffffffffffffffffffffffffffffffffffffffff1681526020018373ffffffffffffffffffffffffffffffffffffffff1673ffffffffffffffffffffffffffffffffffffffff1681526020018281526020019350505050602060405180830381600087803b151561092057600080fd5b6102c65a03f1151561093157600080fd5b50505060405180519050151514151561094957600080fd5b600360003373ffffffffffffffffffffffffffffffffffffffff1673ffffffffffffffffffffffffffffffffffffffff16815260200190815260200160002060008360ff1660ff1681526020019081526020016000205483600360003373ffffffffffffffffffffffffffffffffffffffff1673ffffffffffffffffffffffffffffffffffffffff16815260200190815260200160002060008560ff1660ff168152602001908152602001600020540110151515610a0657600080fd5b82600360003373ffffffffffffffffffffffffffffffffffffffff1673ffffffffffffffffffffffffffffffffffffffff16815260200190815260200160002060008460ff1660ff168152602001908152602001600020600082825401925050819055508160ff163373ffffffffffffffffffffffffffffffffffffffff167fc0aa5496c7b01c4b317a58e270b45f383bcd6ae57f9e5124db9c0674b77764998542604051808381526020018281526020019250505060405180910390a350505050565b600080610ad683610d4a565b9050600360003373ffffffffffffffffffffffffffffffffffffffff1673ffffffffffffffffffffffffffffffffffffffff16815260200190815260200160002060008260ff1660ff16815260200190815260200160002054915050919050565b600081600460003373ffffffffffffffffffffffffffffffffffffffff1673ffffffffffffffffffffffffffffffffffffffff168152602001908152602001600020540310151515610b8857600080fd5b600460003373ffffffffffffffffffffffffffffffffffffffff1673ffffffffffffffffffffffffffffffffffffffff1681526020019081526020016000205481600460003373ffffffffffffffffffffffffffffffffffffffff1673ffffffffffffffffffffffffffffffffffffffff168152602001908152602001600020540311151515610c1757600080fd5b80600460003373ffffffffffffffffffffffffffffffffffffffff1673ffffffffffffffffffffffffffffffffffffffff168152602001908152602001600020600082825403925050819055503373ffffffffffffffffffffffffffffffffffffffff166108fc829081150290604051600060405180830381858888f193505050501515610ca457600080fd5b3373ffffffffffffffffffffffffffffffffffffffff167fac9513adf40097763b4664bee3693d0f051127c5ac55e33f68926c1612ac59958242604051808381526020018281526020019250505060405180910390a250565b505050565b610d0a61166a565b610d1261166a565b915091565b505050565b600080610d2883611471565b905060008160ff161415610d3f5760009150610d44565b600191505b50919050565b600080610d5683611471565b905060008160ff16111515610d6a57600080fd5b80915050919050565b600460003373ffffffffffffffffffffffffffffffffffffffff1673ffffffffffffffffffffffffffffffffffffffff1681526020019081526020016000205434600460003373ffffffffffffffffffffffffffffffffffffffff1673ffffffffffffffffffffffffffffffffffffffff168152602001908152602001600020540110151515610e0257600080fd5b34600460003373ffffffffffffffffffffffffffffffffffffffff1673ffffffffffffffffffffffffffffffffffffffff168152602001908152602001600020600082825401925050819055503373ffffffffffffffffffffffffffffffffffffffff167f42dbebeb8f6fb795e3007753aef2d4b1a292dd123f6de06a41050186741506373442604051808381526020018281526020019250505060405180910390a2565b6000809054906101000a900473ffffffffffffffffffffffffffffffffffffffff1673ffffffffffffffffffffffffffffffffffffffff163373ffffffffffffffffffffffffffffffffffffffff1614156110e157610f0582610d1c565b151515610f1157600080fd5b600260009054906101000a900460ff1660ff166001600260009054906101000a900460ff160160ff16111515610f4657600080fd5b6002600081819054906101000a900460ff168092919060010191906101000a81548160ff021916908360ff160217905550508160016000600260009054906101000a900460ff1660ff1660ff1681526020019081526020016000206001019080519060200190610fb792919061167e565b508060016000600260009054906101000a900460ff1660ff1660ff16815260200190815260200160002060000160006101000a81548173ffffffffffffffffffffffffffffffffffffffff021916908373ffffffffffffffffffffffffffffffffffffffff1602179055507f6c71eb76d5d82031f490d3e44dc01d298444e569078199b14510435d81b59ff7600260009054906101000a900460ff168342604051808460ff16815260200180602001838152602001828103825284818151815260200191508051906020019080838360005b838110156110a4578082015181840152602081019050611089565b50505050905090810190601f1680156110d15780820380516001836020036101000a031916815260200191505b5094505050505060405180910390a15b5050565b6000806110f184610d4a565b9150600073ffffffffffffffffffffffffffffffffffffffff16600160008460ff1660ff16815260200190815260200160002060000160009054906101000a900473ffffffffffffffffffffffffffffffffffffffff1673ffffffffffffffffffffffffffffffffffffffff161415151561116b57600080fd5b600160008360ff1660ff16815260200190815260200160002060000160009054906101000a900473ffffffffffffffffffffffffffffffffffffffff169050600083600360003373ffffffffffffffffffffffffffffffffffffffff1673ffffffffffffffffffffffffffffffffffffffff16815260200190815260200160002060008560ff1660ff16815260200190815260200160002054031015151561121257600080fd5b600360003373ffffffffffffffffffffffffffffffffffffffff1673ffffffffffffffffffffffffffffffffffffffff16815260200190815260200160002060008360ff1660ff1681526020019081526020016000205483600360003373ffffffffffffffffffffffffffffffffffffffff1673ffffffffffffffffffffffffffffffffffffffff16815260200190815260200160002060008560ff1660ff1681526020019081526020016000205403111515156112cf57600080fd5b82600360003373ffffffffffffffffffffffffffffffffffffffff1673ffffffffffffffffffffffffffffffffffffffff16815260200190815260200160002060008460ff1660ff16815260200190815260200160002060008282540392505081905550600115158173ffffffffffffffffffffffffffffffffffffffff1663a9059cbb33866000604051602001526040518363ffffffff167c0100000000000000000000000000000000000000000000000000000000028152600401808373ffffffffffffffffffffffffffffffffffffffff1673ffffffffffffffffffffffffffffffffffffffff16815260200182815260200192505050602060405180830381600087803b15156113e257600080fd5b6102c65a03f115156113f357600080fd5b50505060405180519050151514151561140b57600080fd5b8160ff163373ffffffffffffffffffffffffffffffffffffffff167faed5c5198ccd7615c0128c72fcfc060e97b14315cb791a46bf42b5b6f36c38b98542604051808381526020018281526020019250505060405180910390a350505050565b50505050565b600080600190505b600260009054906101000a900460ff1660ff168160ff161115156114d6576114bc600160008360ff1660ff168152602001908152602001600020600101846114e1565b156114c9578091506114db565b8080600101915050611479565b600091505b50919050565b6000806114ec6116fe565b600085925084915081518380546001816001161561010002031660029004905014151561151c5760009350611661565b600090505b8280546001816001161561010002031660029004905081101561165c57818181518110151561154c57fe5b9060200101517f010000000000000000000000000000000000000000000000000000000000000090047f0100000000000000000000000000000000000000000000000000000000000000027effffffffffffffffffffffffffffffffffffffffffffffffffffffffffffff1916838281546001816001161561010002031660029004811015156115d857fe5b8154600116156115f75790600052602060002090602091828204019190065b9054901a7f0100000000000000000000000000000000000000000000000000000000000000027effffffffffffffffffffffffffffffffffffffffffffffffffffffffffffff191614151561164f5760009350611661565b8080600101915050611521565b600193505b50505092915050565b602060405190810160405280600081525090565b828054600181600116156101000203166002900490600052602060002090601f016020900481019282601f106116bf57805160ff19168380011785556116ed565b828001600101855582156116ed579182015b828111156116ec5782518255916020019190600101906116d1565b5b5090506116fa9190611712565b5090565b602060405190810160405280600081525090565b61173491905b80821115611730576000816000905550600101611718565b5090565b905600a165627a7a72305820350b51f1d20bbfac9957081ed908640d6b9c9cedb61479183e49c2164e17293d0029",
  "source": "pragma solidity ^0.4.13;\r\n\r\n\r\nimport \"./owned.sol\";\r\nimport \"./FixedSupplyToken.sol\";\r\n\r\n\r\ncontract Exchange is owned {\r\n\r\n    ///////////////////////\r\n    // GENERAL STRUCTURE //\r\n    ///////////////////////\r\n    struct Offer {\r\n\r\n    uint amount;\r\n    address who;\r\n    }\r\n\r\n    struct OrderBook {\r\n\r\n    uint higherPrice;\r\n    uint lowerPrice;\r\n\r\n    mapping (uint => Offer) offers;\r\n\r\n    uint offers_key;\r\n    uint offers_length;\r\n    }\r\n\r\n    struct Token {\r\n\r\n    address tokenContract;\r\n\r\n    string symbolName;\r\n\r\n\r\n    mapping (uint => OrderBook) buyBook;\r\n\r\n    uint curBuyPrice;\r\n    uint lowestBuyPrice;\r\n    uint amountBuyPrices;\r\n\r\n\r\n    mapping (uint => OrderBook) sellBook;\r\n    uint curSellPrice;\r\n    uint highestSellPrice;\r\n    uint amountSellPrices;\r\n\r\n    }\r\n\r\n\r\n    //we support a max of 255 tokens...\r\n    mapping (uint8 => Token) tokens;\r\n\r\n    uint8 symbolNameIndex;\r\n\r\n\r\n    //////////////\r\n    // BALANCES //\r\n    //////////////\r\n    mapping (address => mapping (uint8 => uint)) tokenBalanceForAddress;\r\n\r\n    mapping (address => uint) balanceEthForAddress;\r\n\r\n\r\n\r\n\r\n    ////////////\r\n    // EVENTS //\r\n    ////////////\r\n\r\n    //EVENTS for Deposit/withdrawal\r\n    event DepositForTokenReceived(address indexed _from, uint indexed _symbolIndex, uint _amount, uint _timestamp);\r\n    event WithdrawalToken(address indexed _to, uint indexed _symbolIndex, uint _amount, uint _timestamp);\r\n    event DepositForEthReceived(address indexed _from, uint _amount, uint _timestamp);\r\n    event WithdrawalEth(address indexed _to, uint _amount, uint _timestamp);\r\n\r\n    //events for orders\r\n    event LimitSellOrderCreated(uint indexed _symbolIndex, address indexed _who, uint _amountTokens, uint _priceInWei, uint _orderKey);\r\n    event SellOrderFulfilled(uint indexed _symbolIndex, uint _amount, uint _priceInWei, uint _orderKey);\r\n    event SellOrderCanceled(uint indexed _symbolIndex, uint _priceInWei, uint _orderKey);\r\n    event LimitBuyOrderCreated(uint indexed _symbolIndex, address indexed _who, uint _amountTokens, uint _priceInWei, uint _orderKey);\r\n    event BuyOrderFulfilled(uint indexed _symbolIndex, uint _amount, uint _priceInWei, uint _orderKey);\r\n    event BuyOrderCanceled(uint indexed _symbolIndex, uint _priceInWei, uint _orderKey);\r\n\r\n    //events for management\r\n    event TokenAddedToSystem(uint _symbolIndex, string _token, uint _timestamp);\r\n\r\n\r\n\r\n    //////////////////////////////////\r\n    // DEPOSIT AND WITHDRAWAL ETHER //\r\n    //////////////////////////////////\r\n    function depositEther() payable {\r\n        require(balanceEthForAddress[msg.sender] + msg.value >= balanceEthForAddress[msg.sender]);\r\n        balanceEthForAddress[msg.sender] += msg.value;\r\n        DepositForEthReceived(msg.sender, msg.value, now);\r\n    }\r\n\r\n    function withdrawEther(uint amountInWei) {\r\n        require(balanceEthForAddress[msg.sender] - amountInWei >= 0);\r\n        require(balanceEthForAddress[msg.sender] - amountInWei <= balanceEthForAddress[msg.sender]);\r\n        balanceEthForAddress[msg.sender] -= amountInWei;\r\n        msg.sender.transfer(amountInWei);\r\n        WithdrawalEth(msg.sender, amountInWei, now);\r\n    }\r\n\r\n    function getEthBalanceInWei() constant returns (uint){\r\n        return balanceEthForAddress[msg.sender];\r\n    }\r\n\r\n\r\n    //////////////////////\r\n    // TOKEN MANAGEMENT //\r\n    //////////////////////\r\n\r\n    function addToken(string symbolName, address erc20TokenAddress) onlyowner {\r\n        require(!hasToken(symbolName));\r\n        require(symbolNameIndex + 1 > symbolNameIndex);\r\n        symbolNameIndex++;\r\n\r\n        tokens[symbolNameIndex].symbolName = symbolName;\r\n        tokens[symbolNameIndex].tokenContract = erc20TokenAddress;\r\n        TokenAddedToSystem(symbolNameIndex, symbolName, now);\r\n    }\r\n\r\n    function hasToken(string symbolName) constant returns (bool) {\r\n        uint8 index = getSymbolIndex(symbolName);\r\n        if (index == 0) {\r\n            return false;\r\n        }\r\n        return true;\r\n    }\r\n\r\n\r\n    function getSymbolIndex(string symbolName) internal returns (uint8) {\r\n        for (uint8 i = 1; i <= symbolNameIndex; i++) {\r\n            if (stringsEqual(tokens[i].symbolName, symbolName)) {\r\n                return i;\r\n            }\r\n        }\r\n        return 0;\r\n    }\r\n\r\n\r\n    function getSymbolIndexOrThrow(string symbolName) returns (uint8) {\r\n        uint8 index = getSymbolIndex(symbolName);\r\n        require(index > 0);\r\n        return index;\r\n    }\r\n\r\n\r\n\r\n\r\n\r\n\r\n\r\n    //////////////////////////////////\r\n    // DEPOSIT AND WITHDRAWAL TOKEN //\r\n    //////////////////////////////////\r\n    function depositToken(string symbolName, uint amount) {\r\n        uint8 symbolNameIndex = getSymbolIndexOrThrow(symbolName);\r\n        require(tokens[symbolNameIndex].tokenContract != address(0));\r\n\r\n        ERC20Interface token = ERC20Interface(tokens[symbolNameIndex].tokenContract);\r\n\r\n        require(token.transferFrom(msg.sender, address(this), amount) == true);\r\n        require(tokenBalanceForAddress[msg.sender][symbolNameIndex] + amount >= tokenBalanceForAddress[msg.sender][symbolNameIndex]);\r\n        tokenBalanceForAddress[msg.sender][symbolNameIndex] += amount;\r\n        DepositForTokenReceived(msg.sender, symbolNameIndex, amount, now);\r\n    }\r\n\r\n    function withdrawToken(string symbolName, uint amount) {\r\n        uint8 symbolNameIndex = getSymbolIndexOrThrow(symbolName);\r\n        require(tokens[symbolNameIndex].tokenContract != address(0));\r\n\r\n        ERC20Interface token = ERC20Interface(tokens[symbolNameIndex].tokenContract);\r\n\r\n        require(tokenBalanceForAddress[msg.sender][symbolNameIndex] - amount >= 0);\r\n        require(tokenBalanceForAddress[msg.sender][symbolNameIndex] - amount <= tokenBalanceForAddress[msg.sender][symbolNameIndex]);\r\n\r\n        tokenBalanceForAddress[msg.sender][symbolNameIndex] -= amount;\r\n        require(token.transfer(msg.sender, amount) == true);\r\n        WithdrawalToken(msg.sender, symbolNameIndex, amount, now);\r\n    }\r\n\r\n    function getBalance(string symbolName) constant returns (uint) {\r\n        uint8 symbolNameIndex = getSymbolIndexOrThrow(symbolName);\r\n        return tokenBalanceForAddress[msg.sender][symbolNameIndex];\r\n    }\r\n\r\n\r\n\r\n\r\n\r\n    /////////////////////////////\r\n    // ORDER BOOK - BID ORDERS //\r\n    /////////////////////////////\r\n    function getBuyOrderBook(string symbolName) constant returns (uint[], uint[]) {\r\n    }\r\n\r\n\r\n    /////////////////////////////\r\n    // ORDER BOOK - ASK ORDERS //\r\n    /////////////////////////////\r\n    function getSellOrderBook(string symbolName) constant returns (uint[], uint[]) {\r\n    }\r\n\r\n\r\n\r\n    ////////////////////////////\r\n    // NEW ORDER - BID ORDER //\r\n    ///////////////////////////\r\n    function buyToken(string symbolName, uint priceInWei, uint amount) {\r\n    }\r\n\r\n\r\n\r\n\r\n\r\n    ////////////////////////////\r\n    // NEW ORDER - ASK ORDER //\r\n    ///////////////////////////\r\n    function sellToken(string symbolName, uint priceInWei, uint amount) {\r\n    }\r\n\r\n\r\n\r\n    //////////////////////////////\r\n    // CANCEL LIMIT ORDER LOGIC //\r\n    //////////////////////////////\r\n    function cancelOrder(string symbolName, bool isSellOrder, uint priceInWei, uint offerKey) {\r\n    }\r\n\r\n\r\n\r\n\r\n    ////////////////////////////////\r\n    // STRING COMPARISON FUNCTION //\r\n    ////////////////////////////////\r\n    function stringsEqual(string storage _a, string memory _b) internal returns (bool) {\r\nbytes storage a = bytes(_a);\r\nbytes memory b = bytes(_b);\r\nif (a.length != b.length) {\r\nreturn false;\r\n}\r\n// @todo unroll this loop\r\nfor (uint i = 0; i < a.length; i ++) {\r\nif (a[i] != b[i]) {\r\nreturn false;\r\n}\r\n}\r\nreturn true;\r\n}\r\n\r\n\r\n}",
  "sourcePath": "D:\\Thesis HIS\\thesisproject\\contracts\\Exchange.sol",
  "compiler": {
    "name": "solc",
    "version": "0.4.19+commit.c4cbbb05.Emscripten.clang"
  },
  "schemaVersion": "1.0.1",
  "updatedAt": "2018-02-13T21:55:00.477Z"
}